:020000041000EA
:1000000000B5324B212058609868022188439860DF
:10001000D860186158612E4B002199600221596106
:100020000121F02299502B49196001219960352056
:1000300000F044F80222904214D00621196600F024
:1000400034F8196E01211966002018661A6600F04E
:100050002CF8196E196E196E052000F02FF8012189
:100060000842F9D1002199601B49196000215960AB
:100070001A491B48016001219960EB211966A021F2
:10008000196600F012F800219960164914480160C1
:100090000121996001BC002800D000471248134993
:1000A000086003C880F30888084703B5996A0420EC
:1000B0000142FBD001200142F8D103BD02B5186610
:1000C0001866FFF7F2FF186E186E02BD00000240BE
:1000D000000000180000070000035F00212200005C
:1000E000F4000018222000A00001001008ED00E03C
:1000F00000000000000000000000000074B24E7A12
:1001000000200420F7010010C3010010C5010010F9
:10011000C1010010C1010010C1010010C101001097
:10012000C1010010C1010010C1010010C701001081
:10013000C1010010C1010010C9010010CB01001065
:10014000CD010010CD010010CD010010CD01001037
:10015000CD010010CD010010CD010010CD01001027
:10016000CD010010CD010010CD010010CD01001017
:10017000CD010010CD010010CD010010CD01001007
:10018000CD010010CD010010CD010010CD010010F7
:10019000CD010010CD010010CD010010CD010010E7
:1001A000CD010010CD010010CD010010CD010010D7
:1001B000CD010010CD010010CD010010CD010010C7
:1001C00000BE00BE00BE00BE00BE00BE00F04BF888
:1001D000103800BEF2EB8871E4590010085A001084
:1001E0003402001090A31AE700202149086006C8D5
:1001F00081F3088810471F48006800282FD10DA4FC
:100200000ECC002902D000F012F8F9E71A491B4A77
:10021000002000E001C19142FCD1194988471949E9
:1002200088471949884700BEFDE701C901C29A42C3
:10023000FBD37047085A0010C0000020640900205A
:10024000AC6200100000042000000420AC6200102A
:1002500000100420001004200000000070470B482C
:1002600002F0D0F90047EFF30580C0B270470000FC
:1002700008ED00E0000000D068090020A014002074
:10028000E9200010D10A0010D521001057560000B7
:1002900006005250ABB360531C5800100600525079
:1002A000861C03022C580010060052505422A29DB6
:1002B0004458001005005250DE65F468AC6200102E
:1002C000F8B5C046044B10B5002B03D003490448D1
:1002D00000E000BF10BDC046000000002814002050
:1002E000B8540010A020012330B5104CC0050259AD
:1002F000134218D100230122015952001D0001337D
:100300000A42F9D001229A400251032B00DD30BD90
:10031000A02209359B01D205AD009818044B1B683B
:100320005B19C363F3E720250351F7E70C040000D2
:1003300040140020F8B5002004F08CFB002867D0A2
:10034000344B354C997A5A7A49000A43197A52004B
:100350001143DA7949000A439979520011435A79D5
:1003600049000A43197952001143DA7849000A43D7
:1003700099785200114309B25A7849000A431B7810
:1003800012B25200254D26491343264F2A68238076
:100390000B683E68D21A921905D5D34301321B0A65
:1003A0001B02FF329A18FF204B6810406A687F6872
:1003B000D21A28600E60D21905D5D34301321B0A28
:1003C0001B02FF329A18FF2616406E604F6002F043
:1003D000B5F90022144B02F0A0F90022134B02F0F1
:1003E0009CF902F0C3F9A070300002F0A7F90022D6
:1003F0000D4B02F092F900220C4B02F08EF902F044
:10040000B5F90423E07022000121002004F03EFB36
:10041000F8BDC0467014002064140020A80F00200E
:10042000980A0020900A00200000703F00007040F1
:1004300070B500208CB004F00DFB002873D00023B1
:100440001C22002105A8049302F054FD504B04AC7B
:100450001A78002A01D04022E2705A78002A01D08E
:10046000802262709A78002A01D00222A270DA7883
:10047000002A01D01022A2711A79002A03D020216B
:10048000A2780A43A2705A79002A03D04021A278A8
:100490000A43A2709A79002A04D08022A17852429D
:1004A0000A43A270DA79002A03D0202162780A4335
:1004B00062701A7A002A01D0402222715A7A002AE8
:1004C0003DD0344D07206A7A11001031C9B2104076
:1004D00007292AD8012282409E7AD2B2002E0BD060
:1004E000AB7A072019001031C9B21840072934D857
:1004F000012383401A43D2B22270274A274D136842
:100500005168274A16685068136051602A78002A9B
:1005100031D0202322000321002004F0B7FA012269
:100520002B7853402B700CB070BDF72A07D80121EF
:1005300081400800D2080132A15C0143A1549B7A9A
:10054000002BDAD0134D0720AB7A002619001031AA
:10055000C9B2002218400729CAD9F72B07D80121B0
:1005600081400800DB080133E15C0143E154002EC7
:10057000C3D02270C1E7091A9B1B49B202920192B3
:100580000091002204215BB2002004F0C9FAC6E702
:10059000701400201C550010900A00209C140020AC
:1005A000980A00206023F0B547469846D0231B06E2
:1005B0009C460123CE46FF2699468023FF2580B521
:1005C0003648374C374A8044DB0236046146277888
:1005D0004968F9404F460F4243D101684768090610
:1005E0003F043740090C394387682F4039430F02D5
:1005F00051681942FCD197610168476809063F04B8
:100600003740090C394387682F4039430F0251683E
:100610001942FCD197610168476809063F043740D9
:10062000090C394387682F4039430F02516819423A
:10063000FCD197610168476809063F043740090CFF
:10064000394387682F4039430F0251681942FCD162
:100650000C30976101348045B8D1C0BCB946B04672
:10066000F0BD51680F001F401942FAD197615168DF
:100670000F001F401942FAD1976151680F001F40C7
:100680001942FAD1976151680F001F401942FAD1FF
:100690000C3097610134804598D1DEE74802002094
:1006A0001055001000003050F8B5CE464746194BA3
:1006B000194A9946183390461D0080B5174E184CBC
:1006C00000F0A8FF32687368801A994100291BD195
:1006D000404519D880204F46C0020422797ABB7A5F
:1006E00009021B041943FB7A194309026368034298
:1006F000FCD1013AA161002AF8D10337AF42ECD115
:10070000052000F0ABFEDBE7FFF74CFF052000F013
:10071000A5FED5E7FC1300203F420F00A00A0020F1
:1007200000003050F8B54746CE46D0251B4B80B56B
:1007300098461B4B002499461A4F1B4E2D0603E08A
:1007400069610134092C19D000F064FF3A687B68B4
:10075000801A9941002902D1144B984212D90122E2
:100760001000315D6B68884001004046005DC34069
:100770001A42E5D00134A961092CE5D1C0BCB946C3
:10078000B046F8BD0123325D93404A46125D002A0F
:1007900001D1AB61D5E76B61D3E7C04610550010BE
:1007A000FC130020A00A0020045500103F420F0057
:1007B000F0B5DE4657464E464546E0B5192091B0A5
:1007C00001F004FCD02380221B0692045A62A44844
:1007D0005A61A44BA4499A46186004F089FC0300AE
:1007E0001633C2011B0313431A00002480460593ED
:1007F0009E4B1A409E4B04929B469E4B99469E4BA5
:1008000006939E4B07935A46002308C293465246CE
:100810001768069A2100165D3800320000930233F3
:1008200004F0DEFC964A751CBB185A1E934130003A
:10083000991D039101F0A0FB2800039901F09CFB96
:1008400030000022012101F0AFFB2800002201212D
:1008500001F0AAFB002380220B93F82352025B02D3
:1008600008920993C02310221B0308A90CA80A931D
:1008700002F046FB059910220D91F6030CA908A879
:1008800002F03EFB0B96012604992D060D43A02392
:10089000099535009B03424621003800A5400A9384
:1008A00008AB04F0DFFC51463B680A682B433B6011
:1008B000734BA020D318591E8B41DB0004331B1946
:1008C000E102DB030B43C00509218446A0000B4372
:1008D0002030A101614412180A604A464A60102281
:1008E0000B208A60CB60079901F0CAF901210B2027
:1008F00001F0A0F9634B1D6004239C46E144002CE9
:1009000001D101247FE700F085FE5F4B5F4C18604A
:1009100059605F485F49206004F0EAFB2568584B46
:100920000700E9184B1E99411C20063101F024FBF9
:10093000022101231C222800009604F051FC802390
:100940005B020C93FB1CFA011B031343524A052064
:1009500013400D93514B0F93514B0E9301F0B4FD87
:1009600002F04AFA4F4902F02CFA061C02F06CFA27
:1009700084B20020002C0ED0200002F03DFA011CB1
:10098000301C02F018FA8721C90502F02EFA02F095
:100990005BFAC0B2000224043A0004430CAB02210B
:1009A00028000C9404F05EFC04222B6800241343FE
:1009B0002B603D4B002699463C4B00279B463C4B09
:1009C0009A465B4600221B191A704B46C0C39946D3
:1009D00053461D5D0134280001F0F8FA0521280076
:1009E00001F0CAFA0123D022AB401206936290466E
:1009F00001210022280001F0D7FA0B2CE1D12D4C67
:100A000001262700093725780134280001F0DEFA95
:100A100033004246AB405362A742F4D10022264B3A
:100A20001A704346013211005B6819401A4210D116
:100A3000224A234B1970234B1A60D0231B065B6894
:100A4000DB0508D411B0F0BCBB46B246A946A046AF
:100A5000F0BD1D4AEDE71D4800F070F9F2E7C04611
:100A60000000205040140020C8540010FFFFFFE099
:100A7000A80F0020900A002000550010E502001089
:100A80000000E0AF04240050A00A0020441400201D
:100A900000003050B8540010FFFFFF9F007000208E
:100AA000000006700024F44AA80C0020581400200E
:100AB00010550010045500109C1400203104001043
:100AC000C80300202014002035030010A9060010E0
:100AD000F0B5C64600B504F0F3FAFFF769FE04F07E
:100AE000DBF9224BD026984601250124204F3606FB
:100AF00003F072F8736823406B403B7073685B08C7
:100B000023406B407B7073689B0823406B40BB7035
:100B10007368DB0823406B40FB7073681B0923403C
:100B20006B403B7173685B0923406B407B7173685A
:100B30009B0923406B40BB717368DB0923406B400A
:100B4000FB7173681B0A23406B403B7273685B0A3E
:100B500023406B407B7273689B0A23406B40BB72DF
:100B600043461B689847FFF7DDFDC1E720140020CE
:100B7000701400200020704710B502A800880229D8
:100B800000D010BD022AFCD12028FAD91349581CE4
:100B9000081A82421AD29A0718D11A680A605A684B
:100BA0004A609A688A60DA68CA601A690A615A6992
:100BB0004A619A698A61DA69CA6120229B5C8B5416
:100BC00000F028FD064B18605960DAE70022985CB7
:100BD00088540132212AFAD1F2E7C046FC130020E2
:100BE000A00A0020034B1B78002B01D0024870475D
:100BF0000248FCE7C8030020905700107C57001003
:100C0000034B1B78002B01D0024870470248FCE7D9
:100C1000C8030020285700108C560010034B1B7887
:100C2000002B01D0024870470248FCE7C8030020AF
:100C3000685600104456001070B5002822D01828BD
:100C400029D8164B8000C558280004F075FBC0B2A7
:100C5000041C3F2814D8C026E4B2631CDBB25B003E
:100C6000B6001E43002808D000230D4AE95C01337A
:100C70001180D9B202328C42F8D80A48068070BD81
:100C80003F24E8E7C126054B02220548196802F017
:100C900037F9B600F1E70020F1E7C046CC030020A9
:100CA0001E0D00201C0D002003BDC04610B5040021
:100CB00001F050F9A04710BDF0B5040087B00F2037
:100CC0000E00170000F0C8FF002105000F2000F003
:100CD000B1FF002300220092019301230293D0234D
:100CE00004960594002600240121022003971B0688
:100CF000002C14D01A6D1042FCD05C6540BF1A6DF8
:100D0000114203D120BF1A6D1142FBD09A6DA2424D
:100D10000AD000266C46B200A458E9E79A6D1A6D15
:100D20001142FBD140BFE5E70136062EF2D1290082
:100D30000F2000F07FFF07B0F0BDC0460D4B0E4AFC
:100D400010B5934210D30D4A99181A000B4C10514C
:100D5000FF20C00013500A4B0A4813500A4B0B489F
:100D60009A68FFF7A9FF10BD01235B421A000849EA
:100D7000ECE7C0460008042000000420F40700004F
:100D8000AD0C0010FC07000000ED00E0A90C001005
:100D9000F3070000024B9C466144890001607047E4
:100DA000400000340021044B044ABFF35F8F02C3AC
:100DB0009342FAD17047C046000100D0800100D0B4
:100DC000044A1078431CDBB2172B00D91023137090
:100DD0007047C0463004002010B5064B064C82B068
:100DE0000100009318221F23200000F03FF802B0FA
:100DF00010BDC046A4570010A40F0020EFF31080D0
:100E000072B6034A1368002BFCD0BFF35F8F7047A4
:100E10002C0100D0BFF35F8F0022024B1A6080F3D9
:100E2000108870472C0100D070B5EFF3108C72B6AB
:100E30000D4D2B68002BFCD0BFF35F8F0724CB0830
:100E4000C618C05C01230C40A3401C0004400342B0
:100E500007D118433070BFF35F8F2C608CF310887C
:100E600070BD100001F0B8F92C0100D0F8B547466C
:100E7000CE46884680B5EFF3108C72B6214D2C68B3
:100E8000002CFCD0BFF35F8F9A422CD8D4080727E0
:100E9000055D061901241740BC402C421FD00721D4
:100EA0000127894609E0D408055D06194C4639003A
:100EB0001440A1400C00294211D001329342F2D2D9
:100EC00001204042BFF35F8F00220E4B1A608CF36B
:100ED000108800280FDBC0BCB946B046F8BD2543DA
:100EE00010003570EEE7BFF35F8F00232B608CF3AB
:100EF0001088012040424346002BECD0089801F0B6
:100F00006BF9C0462C0100D0024B18688007C00F57
:100F10007047C04600C0064083680B4810B5844641
:100F2000614462441201090159189B185C684A68BF
:100F30000120944201D802D00020C0B210BD1A682E
:100F40000B689A42F9D8F7E7FFFFFF0F0A4B1968C1
:100F5000EFF3108072B60A68002AFCD0BFF35F8FEF
:100F60001B68BFF35F8F00221A6080F3108840BFB8
:100F7000002000217047C0466C140020F8B5574689
:100F800045464E46DE46E0B598460CAB1C780DABA8
:100F90001B78070091469A460568002C5AD1AC7B15
:100FA000002C3BD0660029683619033E89194B781E
:100FB000AB73002B00D1EB7300238B704B700B7065
:100FC0002B4BE218BB6812019B184A461A60424636
:100FD0005A600A9A9A600B9ADA6000238B704B7001
:100FE0000B706B7B9B46002B27D022006B68594609
:100FF000A86898475B465B005B442A68033B00286F
:1010000012D058469619B070D118D35C002B00D07E
:1010100073705B460C706B735C450FD0F0BCBB46C5
:10102000B246A946A046F8BDD3189C709119925DAE
:10103000002A00D05A705B460B706C734A464346D8
:10104000387D00F047FB051E0AD10E9B002BE5D032
:101050001D70E3E7660029683619033E8919AFE77A
:101060005346002BF1D12100386800F07DFDECE7FC
:10107000FFFFFF0FF0B5DE4657464E4645460023BC
:10108000E0B58DB00A936A4B8200D75800239B4687
:101090000B9000F0BFFA02000B007868EFF31089A4
:1010A00072B64D4601680029FCD0A946BFF35F8F98
:1010B00039684E7B8C46002E2ED0BC685D49A24616
:1010C000711809018A4451460868496804000D00F6
:1010D000A41A9D41002D5EDD02000B000B9800F06C
:1010E000F9FA002300229A4600230892099300236C
:1010F00098467B68BFF35F8F5A461A6089F3108861
:101100004346002B12D10028C3D10DB0F0BCBB4622
:10111000B246A946A046F0BD002300229A4600230D
:1011200008920993002300209846E2E70A9B514663
:1011300018023043C047069007917A68EFF3108594
:1011400072B654461368002BFCD0A246BFF35F8FE3
:101150000699079A002A3BDB114302D03B69002B1A
:1011600052D13B68D97B002905D01A684800411844
:101170005218033A5670DE73FA68013E935D0133EC
:1011800093555B463B617B68BFF35F8F5A461A609D
:1011900085F310887DE7002D01D1002C9CD1002122
:1011A000604600F049FC53465C681B68089309944C
:1011B00053469B6898465346DB689A46FB689B19E2
:1011C000013B1B780A931B0203433B61002090E71D
:1011D0003B69002BC5D0089B099C5B1A9441089879
:1011E00009991A002300A14219D899421BD0002165
:1011F0000491013103915146019141463800029614
:101200000091FFF7BBFEBCE700F004FA069A079BCB
:1012100012184B41994202D8E9D19042E7D90122F4
:101220005242D317E3E708999142E0D9F7E7C04665
:1012300048140020FFFFFF0FF8B557464E464546BD
:10124000DE46E0B53E4D824689466A68EFF3108877
:1012500072B61368002BFCD0BFF35F8F2E68B47B8F
:10126000002C48D0670033683F19033FDB195A78D8
:10127000B273002A00D1F273324AA118AA68090198
:10128000521851461160494651602F499160002122
:10129000D160997059701970737B9B46002B41D0B7
:1012A000220073685946B06898475B465B005B4410
:1012B0003268033B00282CD05846D719B870D11893
:1012C000D35C002B00D07B705B460C7073735C4565
:1012D00029D00026EB681B19013B19786B68BFF316
:1012E0005F8F00221A6088F310880020002E0AD138
:1012F0000802204307E06B68BFF35F8F1C6088F330
:10130000108801204042F0BCBB46B246A946A04628
:10131000F8BDD3189C70D119D25D002A00D05A7044
:101320005B460B70747352464B46287D00F0D2F931
:10133000061ECED02100286800F016FCCAE7C04681
:1013400034040020FFFFFF0F4D0F001010B5124CAA
:101350006368002B04D00A211048FFF71BFD10BD65
:1013600023000F4A1021206800F06CFA032000F0DF
:1013700045F9032000F01CFA03200A4900F064F943
:10138000FFF71EFD084B9C46032360442375074B63
:1013900080006060DC60DEE7340400206C14002014
:1013A000190F001075100010400000344814002080
:1013B000F0B504000D0006267642F717C64636192A
:1013C0006F4100B58F4213D810D000F023F93200DE
:1013D0003B00121A8B41002B14DC002B37D0290064
:1013E000200000F021F980BCB846F0BD8642ECD95F
:1013F0000026002700F00EF932003B00121A8B4144
:10140000002BEADD30003900FFF716FF0028E6DB8D
:1014100000239846BC460F4A0F4F7B6A9C4504D870
:10142000B96AB142DBD29C45D9D11168EFF3108083
:1014300072B60B68002BFCD0BFF35F8F1368BFF34D
:101440005F8F4146196080F3108820BFE5E7002ACE
:10145000C5D0D7E76C1400200040054070B50600E9
:1014600000F0D8F8FA2204000D000023300000211B
:10147000920001F083FC001969418D4205D802D029
:10148000FFF796FF70BD8442FAD901204042C11790
:10149000F6E7C046F8B5CE46474680B505000C00D5
:1014A000FFF7CAFE031E11DC244A0020536AA34240
:1014B00003D3926A0130AA4203D3C0BCB946B046F6
:1014C000F8BD1B1B5A1E9341D8B2F6E720BF1C4E35
:1014D0007168EFF3108772B60A68002AFCD0BFF378
:1014E0005F8FDAB29446FF2230681A40417B614533
:1014F0000AD00168894651008846494690444144D3
:101500000339897800290FD0F1681B0A8A18013A3B
:101510001278DBB29A420CD07368BFF35F8F00225F
:101520001A6087F31088BFE732699342F4D13161C2
:10153000F2E7614600F018FBEEE7C04600400540C8
:1015400034040020F0B5D6464F464646C0B5EFF30A
:1015500005823F23134018001038EFF3108C72B649
:1015600020490A68002AFCD0BFF35F8F01221700D0
:1015700087401D4C1600A24667631C4C2578A04688
:101580002C00C4402640224215D05246566A184AC2
:101590008400A258964218D34246164BBD43E358E6
:1015A0001570BFF35F8F00220A608CF31088002B48
:1015B00006D0984704E0BFF35F8F0E608CF310886D
:1015C000E0BCBA46B146A846F0BD0B4A9B00904627
:1015D00043441A681A60BFF35F8F00230B608CF3DB
:1015E0001088EDE7280100D0004005409D14002040
:1015F0007C140020940F0020D03F054010B5034B11
:1016000001001800024AFFF70FFC10BD9A140020D9
:10161000C0570010034B596A0A00986A596A8A42F7
:10162000FAD1704700400540064A536A9942FCD8F7
:1016300007D1044B02E05A6A914202D19A6A82426F
:10164000F9D370470040054070B504000D00EFF37A
:10165000108672B61A4A1368002BFCD0BFF35F8F56
:10166000002D1BD0200000F003FB164981420AD058
:10167000200000F005FB0121200000F0DBFA01232F
:10168000A340114A1360114BA400E550BFF35F8FD4
:1016900000220B4B1A6086F3108870BD0121A14017
:1016A0000A4BA200D5500A4B20001A788A430549FC
:1016B0001A7000F00FFB0021200000F0BBFAE5E7F4
:1016C000280100D04515001038600540940F002017
:1016D0009D140020F0B54F46D6464646C0B50700DB
:1016E0002E4C616A0D00A66A616AA942FAD18B424A
:1016F00008D805D00120E0BCBA46B146A846F0BDE6
:10170000B242F7D9EFF3108A72B625480168002972
:10171000FCD0BFF35F8F0125BD4022491F4C884696
:10172000097889462943C9B28C464146604608700B
:10173000391D890065630A511B49B8004350216A6D
:101740000020294219D0616A0800A66A616A8142B4
:10175000FAD18B4219D801D1B24216D8CC450BD060
:101760000E4B1F221D625D6301233A4093400F4AD6
:10177000136043464A461A700120BFF35F8F002270
:10178000074B1A608AF31088B5E70020BFF35F8F1C
:101790000022034B1A608AF31088ACE70040054032
:1017A000280100D09D1400207C14002080E200E07D
:1017B000EFF3108C72B60A490B68002BFCD0BFF314
:1017C0005F8F01238340074A0748136202789A43D8
:1017D0000270BFF35F8F00230B608CF3108870479B
:1017E000280100D0004005409D14002070B506007F
:1017F0000D00140000291DD0002A12D073688068E3
:10180000984762006B0012195B193168033A033B79
:10181000002808D08A189570C818CB5C002B0BD113
:101820000470280070BDCB189C7088188A5C002A50
:1018300005D105702000F5E753700470F1E75A7088
:101840000570F7E710B583600023CCB24373013312
:10185000426004738373C4730068421C012C05D971
:101860000133DBB2137003329C42F9D1FF230B40EA
:101870005A00D318C01800230338437010BDC04667
:1018800070B505000C1E07D0630001681B19033BEF
:10189000CB185A78002A01D1200070BD5000801862
:1018A0000338091800204E7848702100587028002D
:1018B000FFF79CFF310004002800FFF7E1FF06005E
:1018C000002C20D00028E7D0320021006B68A868E7
:1018D00098477200630092191B192968033A033B69
:1018E000002808D08A189470C818CB5C002B00D050
:1018F00053700670D0E7CB189E7088188A5C002A57
:1019000000D05A7004703400C6E7C046F8B5574698
:101910004E464546DE464C00E0B5641817000268A6
:10192000033C0500105D13190E009C46002852D0A0
:10193000430098461B18033BD31859788A46002960
:1019400019D1002F0CD0EC7B002C50D063001B1958
:10195000D318033B5E70EE734346191803395318CE
:1019600000229A70002362465370F0BCBB46B24618
:10197000A946A046F8BD4900514403395218517890
:10198000884600215170894659705246010028004E
:10199000FFF72CFF43468246002B07D05B002968E7
:1019A0004344033BCB185A78002A2CD15146424677
:1019B0002800FFF71BFF0100002F1AD0A4462A6859
:1019C000EF7B9444002F04D07B00DB19D318033B3A
:1019D0005E70EE7310E0002FC4D0E97B002910D0B8
:1019E0004B005B18D318033B5E70EE73BAE7EE73DF
:1019F000B6E7A4462A6894440029B3D04B00984621
:101A0000AAE7EE73AEE7500080180338091848784B
:101A1000834648464870587041462800FFF7E6FE66
:101A2000594680462800FFF72BFF41460200280058
:101A3000FFF7DCFE8046B9E7F8B557464E46454607
:101A4000DE46E0B5467B02687500AD19033D0F0028
:101A5000515D531904009C46002953D04B00984611
:101A60005B18033BD3185878824600281BD1002FFF
:101A70000CD0E57B002D51D06B005B19D318033BD4
:101A80005E70E673434658180338131800229A70A4
:101A900000236246300053706173F0BCBB46B2460F
:101AA000A946A046F8BD40005044033812185078AB
:101AB0008046002050708146587052462000FFF743
:101AC00095FE43468246002B07D05B0021684344C5
:101AD000033BCB185A78002A2CD1514642462000AD
:101AE000FFF784FE0100002F1AD0AC462268E77B86
:101AF0009444002F04D07B00DB19D318033B5E70A5
:101B0000E67310E0002FC3D0C07B002810D0430044
:101B10001B18D318033B5E70E673B9E7E673B5E7AD
:101B2000AC46226894440028B2D043009846A9E706
:101B3000E673ADE7500080180338091848788346EB
:101B400048464870587041462000FFF74FFE5946FE
:101B500080462000FFF794FE414602002000FFF778
:101B600045FE8046B9E7C04670B5050000292CD077
:101B7000437B8B422ED04C0000686418033C041950
:101B8000A278002A21D053009B18033BC25CC618E0
:101B90008A4202D11BE0002A08D053009B18033B65
:101BA000C3185A788A42F6D162785A70002301220B
:101BB0002800A3706370FFF7A9FE697B020028006C
:101BC000FFF714FE6873012000E0002070BD637809
:101BD0003370EBE701221900FFF798FEF2E7C046E9
:101BE00010B50400FFF7ECF801002000FFF7D2F871
:101BF000FF232371BFF35F8F10BDC04610B50400F3
:101C0000FFF7DEF801002000FFF7C4F8FF23A380F0
:101C1000BFF35F8F10BDC04610B504000120FFF771
:101C2000DBF8034BC3189B002360BFF35F8F10BD2D
:101C30004000003401238340002904D0034A13608C
:101C4000034A13607047034A1360FBE780E200E039
:101C500000E100E080E100E001228240034B1B68CC
:101C600013405A1E9341D8B27047C04600E100E0CD
:101C7000024B10309B688000C058704700ED00E0B8
:101C800070B50D00EFF3108672B60F4A1368002B83
:101C9000FCD0BFF35F8F0D4B10309B6884001B5945
:101CA0000B4A934203D09D4201D000F0ADFA074B9E
:101CB0009B681D51BFF35F8FBFF35F8F0022024B04
:101CC0001A6086F3108870BD240100D000ED00E09A
:101CD000CD010010F0B5DE4657464E464546E0B50C
:101CE0000C0083B0EFF3108A72B6604A1368002BC1
:101CF000FCD0BFF35F8F1022914681444A465C4B73
:101D000096009B689D595B4B98469D4205D0A54225
:101D100016D0594FEB1B2F2B14D9554B9B689D5157
:101D2000BFF35F8FBFF35F8F0022504B1A608AF3BF
:101D3000108803B0F0BCBB46B246A946A046F0BD31
:101D40001D00EAE7012383409B465A464B4B1B6824
:101D50001A4000925A464A4B1A60BFF35F8FFEF753
:101D600082FA031E01901DD12A0001339A43906824
:101D7000844208D171E04B005B189B00FB18986807
:101D8000A04245D01A00062151560029F3DA8442B8
:101D90006AD0009B002B34D05A463A4B1A60374B1E
:101DA0001A60BAE7814530D12A0001239A4390682E
:101DB0008442E8D1062151561300002940DB4A0035
:101DC000501880003C188046A0689860E079D8716F
:101DD00006202056987100282FDBA488F81A640585
:101DE000241544440019E0240005400D240220433A
:101DF00098805318244A9B001078FB189871117032
:101E0000C7E75A461E4B1A6087E700F0FDF9CBE79B
:101E1000062159560029D2DA0199002910D1FF3143
:101E200091711A49918018490A789A71184ADB1BF6
:101E30005B415A43120D0A70ABE7BD200002D7E7A1
:101E4000144A1549D21A083A5002400D01439980AC
:101E5000124952080A43DA809BE7062151561300C3
:101E60000029ACDA4546DEE71300D5E7240100D0AF
:101E700000ED00E0CD0100105C04002000E100E076
:101E800080E100E080E200E09B14002000BDFFFF45
:101E9000AAAA00009604002000F0FFFF00F8FFFF50
:101EA000F8B5012504000543FEF7DDF9EFF3108CCA
:101EB00072B6214A1368002BFCD0BFF35F8F1F4E10
:101EC0002100B7681E4A1F4B891A49414B431B0D1D
:101ED00059B28300F858A8421CD00623D3568B422F
:101EE0001CD01223D3568B4222D01E23D3568B42B2
:101EF00020D02A23D35603208B4210D0124B1A78BD
:101F00001970A271BFF35F8F00220B4B1A608CF324
:101F10001088F8BDB2680D48D050EFE700204300AC
:101F20001B189B00D218FF239371094B9380E5E7A0
:101F30000120F4E70220F2E7240100D000ED00E0E8
:101F40005C040020AAAA00009B140020CD01001010
:101F500000BDFFFF054B064A1360064A136053603D
:101F60009360D36013615361936170478080808078
:101F700000E400E004E400E0094A10B5944640247F
:101F8000830063441A68C000624080341440802299
:101F9000520113431C60034B9C466044416010BDDA
:101FA00004C0014000400140074B80009C46604453
:101FB0000368C90092000A435A400C231A40802348
:101FC0005B0103431A60704704C001400123D02223
:101FD0008340120693629361094A4021944683002C
:101FE00063441A68C0004A40803111408022520187
:101FF00013431960034B9C460523604443607047BC
:1020000004C0014000400140F8B5040006200D0066
:1020100000F05AFA002844D02A4B2B49E2185342C8
:102020005A418023DB039C469205284B62441A6088
:10203000274B1A6010008B689843FBD1214B254A2F
:10204000E31859424B4180215B0049009952062018
:1020500000F03AFA2900C00000F006FBC30921D1C4
:1020600040270121260080256162A36200232C36CF
:10207000AD0135432B60062000F026FA39008000C0
:1020800000F0F2FA6022E36A53400E321A408023D5
:102090005B0133431A60104B236310232B600D3B0D
:1020A000A364F8BD0D4A934203D900230C4F0D4998
:1020B000D8E77F220240013252089F011900BF1861
:1020C0001300CFE70080FCBF00C0004000E00040EC
:1020D00000F000408C14002001030000FEFF00000F
:1020E000C0FF3F00FFFF00002B4B2C4A70B51A6069
:1020F0002B4A2C4B2C491A6014008B689C43FBD153
:102100002A4D2B4EB54208D2013E761BB60808CDAB
:10211000984723000134B342F9D100F07BF8254AF7
:10212000204B1A60204A9368DB43DB01DD09002B5A
:10213000F9D14022204B214E214C9A675A671A67E9
:10214000DA66B44208D2236820000834002B1FD07E
:10215000FFF754FDB442F6D31A4C1B4EC022B168AF
:10216000200000F0CDFEB460FEF71CFEFFF7F2FE8B
:10217000FFF7ECF8154C164EB44208D2013E361B60
:10218000B60808CC98472B0001359E42F9D170BDA6
:10219000FFF726FDD5E7C04600E00040BFCDFBFEBF
:1021A000FE7F3C0000F0004000C000404C090020D1
:1021B0005C090020FFFFFF0100F001404C090020F6
:1021C0003C0900200000002000ED00E05C09002038
:1021D0006409002000BEFDE70FB400B5084883B0D5
:1021E00000F030FF049B002B07D005A918000191D7
:1021F00000F0E8F9034800F025FF00BEFDE7C04607
:10220000E4570010F457001010B50148FFF7E4FF41
:10221000F857001010B50C2082B000F0AFF9FEF7AF
:1022200073FE002810D0864B86488649864A18607F
:1022300059609860D960186159619861D9611862D4
:1022400059625A6202B010BD804CA06700F09EF93E
:1022500001227F4B1A60636C012BFCD103227D4B62
:102260001A607A4A936B012BFCD1013301217A4A1F
:102270007A480093043300F02DF90523784A00933F
:102280000121784800F026F9774B5A68FF2A02D8D6
:10229000802252005A6080226E4B694C12011A60F3
:1022A0002169002905D0606900F0DEF901300138AC
:1022B000FDD1E0226C4B6D4819680A400260022291
:1022C0001968514001320A40042102609A681142A3
:1022D000FCD08021664A09011160802252005A60B8
:1022E000644B2361644B5968FF2900D85A6003226C
:1022F0000121574B1A60604A93681942FCD0E023D1
:10230000106803405D480360126803234A400221BD
:102310001340594A036093681942FCD08021584BFE
:10232000090119608021574B490051606361564B88
:102330005A68FF2A00D859608022544B12011A6053
:10234000E169002905D0606900F08EF9013001389B
:10235000FDD1E0234C4A11680B404D490B608021B0
:102360004C4B090119608021364B49005160E361F3
:10237000494B5A68FF2A00D859608022474B120106
:102380001A60216A002905D0606900F06DF90130FA
:102390000138FDD1E023404A11680B4040490B60F1
:1023A0008021404B0901196080235B00536080222B
:1023B000244BD20223623C4B5968914200D25A60AE
:1023C00080223A4B12011A60616A002905D06069C7
:1023D00000F04AF901300138FDD1E023324A11689A
:1023E0000B4033490B608021324B09011960802377
:1023F000DB025360144B63622F4B5A68FF2A02D8EA
:10240000802252005A6080222C4B12011A60A1696E
:10241000002905D0606900F027F901300138FDD1AD
:10242000E023254A11680B4025490B608021254B8C
:102430000901196080235B005360124BA36101E71F
:1024400068090020006CDC021BB70000008000401F
:102450003CB0004030B00040002F6859008002407E
:10246000008C864700C00240308000403090004021
:1024700030A00040001BB7003C8000403C90004072
:102480003CA00040405973075480004054B00040C5
:102490005490004054A000406080004060B0004074
:1024A0006090004060A000406C8000406CB0004034
:1024B0006C9000406CA000404880004048B0004054
:1024C0004890004048A00040014B8000C058704731
:1024D00068090020F8B504000C2017001D000E004C
:1024E00000F0C2F843011B1A9901C91AC900091862
:1024F0008901380000F0B8F8069B29041B03194332
:102500002368002B20DB194B194DE3185A42534125
:102510008022520194461B03164A63441360164AF4
:1025200013601F00AA689743FBD1C023221D9B01A3
:10253000134321222660A0601A602268002AFCDA78
:102540000822E1601A60F8BD3F2322681340B342BD
:10255000D9D1A3681B051B0D8342D4D1EE22E368B9
:10256000D20213408B42CED1EDE7C0460040FDBF02
:1025700000C0004000E0004000F000408023024A1C
:102580009B000343D362704700800540AA23064A9C
:102590001B0113602F230549D360054B1960536855
:1025A000002BFCDA7047C0460040024000B0FA0041
:1025B0000060024010B5002800D110BD00F0F0FC12
:1025C000FBE7C04610B5094A0300146884B0002C2C
:1025D00008D0012200910648524203A9A0470120D9
:1025E00004B010BD00F02EFD0020F9E7F813002024
:1025F000B525001001480421014B1847B004002004
:1026000025260010142310B50100188804331B88F8
:10261000984710BD162310B50100188802331B8897
:10262000984710BDF8B54746CE4680B50F1E19D065
:1026300014239946043304000025012698464B468E
:102640001888434621681B88984701C4431E984157
:10265000013540420640AF42F1D13000C0BCB9461E
:10266000B046F8BD0126F8E7114A936F9B0813D2D4
:1026700010665166002905D0FFE7FFE7FFE7516FBD
:10268000106F704704B5002801D00020C04302F04D
:10269000F3FE002104BDC046F0B5146E556E576FB1
:1026A000166FFFF7E5FF1466556657671667F0BDAE
:1026B000000000D048404140484018B41B4B5B68C4
:1026C000FC46019308BD04DF4F28001018B4174BD7
:1026D0001B68FC46019308BD00DF59280010944692
:1026E000134A926F920809D2624618B40F4BDB6806
:1026F000FC46019308BD0CDF112B00100C4AF0B50D
:10270000146E556E576F166F6246FFF7EEFF084A5C
:102710001466556657671667F0BD18B4034B9B687F
:10272000FC46019308BD08DFB5290010A80A002067
:10273000000000D00021002805D17047C117484093
:10274000401AFAD0C90713B5064B1B6898470CBC52
:10275000441CA2401005120B0349091B090519432B
:10276000114310BD681400201F04000018B4044B6E
:102770005B6AFC46019308BD24DFC12C00100000F9
:10278000A80A0020132370B51D78012D15D010DD87
:102790001D48FFF73FFF1D4C01008022200000F084
:1027A000AFFB022D2DD01A48FFF72CFF194B1860F4
:1027B00070BD194B154CA364F5E7174B134C236000
:1027C0006360A360E36023616361A361E3612362EB
:1027D0006362A362E36223636363A363E3632364CB
:1027E0006364A364E36423656365A365E3652366AB
:1027F0006366A366E36623676367A367E367A3640F
:10280000D1E7054BA364CEE753440000A80A00209B
:102810004C330000681400201D28001007B56046E6
:1028200001880A0A0230DF2AFAD1C9B2820804D329
:10283000028840880004104300E00068014A5050BC
:10284000039007BDA80A00200FB403BC0CBCF0B570
:102850000124E407634000E0F0B50C0DCF0F661EC5
:102860003605891B640503D3C943404200D30131B7
:10287000640D03D0661CF60A07D0E41B00207F001D
:10288000791C89078912803C24031D0DDF0F6E1E01
:1028900036059B1B6D0503D3DB43524200D3013346
:1028A0006D0D03D06E1CF60A07D0ED1B00227F00D1
:1028B0007B1C9B079B12803D2D032F1B661B58D44E
:1028C000A446202E46DA20371400BC401D00BD402F
:1028D000F24033412A4380185941CB0F05D0C943F8
:1028E000C043002264425041514162464D0D28D1FF
:1028F0000D0D07D100281FD0241940414941013A4C
:102900000D0DF9D0640006D3013000D30131002C45
:1029100001D140084000013A0BD4941CE40A04D1D0
:1029200012051144DB071944F0BDD907204B1943A8
:1029300000E0D9070020F0BD0029DDD1002CDBD15B
:10294000F0BD0132C6074008CD0728434908002ED4
:10295000E1D0D9E73C2E29DA203E40371400BC40B4
:1029600000D00124F24014431A00BB401C43D3178B
:10297000ACE7AC46202F08DA20360400B4400D0046
:10298000B540F84039412843A5E73C2F0CDA203FF9
:1029900040360400B44000D00124F840044308004D
:1029A000B1400C43C117EAE710001900002494E776
:1029B0000000F07FF0B50C0D661E3605891BE60A97
:1029C0006405640D02D0651CED0A04D000200121CD
:1029D0000905803C2403A4461C0D671E3F05DB1B34
:1029E000E70A6405640D02D0651CED0A04D00022DC
:1029F00001231B05803C24037740644497B484B2D0
:102A000096B27443070C7E43150C6F4380B2684343
:102A1000361802D3012000043F183004350C001989
:102A20007D41844688B29AB250430C0C62431F0C1D
:102A30007C438EB27E43921902D301263604A41938
:102A40001604170C3618674101BC81B29AB2514383
:102A5000040C62431B0C5C4380B25843121802D32F
:102A60000120000424181004130C401863412D1891
:102A70005E410020474106BC88B293B258430C0C1B
:102A80006343120C544389B251435B1802D30121B2
:102A90000904641819041A0C091862416D1856418A
:102AA0000020474118BCF902720D1143F0026A0D73
:102AB0001043ED020A0D03D16D1940414941013B1C
:102AC000124E9B1B7600B3420ED26D0007D301302D
:102AD000002671416646354301D1400840001B0580
:102AE000C918E4072144F0BD0BDA013306D10130E7
:102AF00004D101314F0D01D04908F2E7E107002070
:102B0000F0BD013631050020EBE70000FF030000B7
:102B1000F0B51C0D671E3F05DB1BE70A6405640D5D
:102B200002D0661CF60A04D0002201231B05803C5B
:102B30002403D0252D060026F6432E661E096E6658
:102B4000CE0FF619B44649004F0D02D07E1CF60A8E
:102B500003D000200021403F3F033E1BB600B44499
:102B6000013F7F05C91B49082E6F013676089C027C
:102B7000950D25437543ED137543AD1301356D1068
:102B8000F603761B0CB4CC02450D2C43A2B2B3B2B3
:102B90005A43270C7B43350C6F43A4B26C431B197B
:102BA00002D3012424043F191C041D0CA4187D41E8
:102BB00024196D41009A91B2ACB26143170C7C4369
:102BC0002B0C5F4392B25A43A41802D30122120481
:102BD000BF182204230C52187B41019C6C431B1923
:102BE000520ED9010A434401A01A81B2B2B2514334
:102BF00003145A43360C734387B27743D617D2195E
:102C000000277E4136049B191704160C7F185E417D
:102C10007316ED18F301002680337541A90F06D114
:102C20006400690AE8055B0A184309D22FE0042210
:102C3000944480337541A90AA8059B0A184326D3FA
:102C4000404149412404009A019B0D005543641BF7
:102C50004343E41A95B286B27543170C7E43030CC6
:102C60005F4392B25A43B61802D301221204BF182E
:102C70003204330C52197B4152429C41002C02D445
:102C80000022013051414008CA071043490802B0F0
:102C90006246D7079210084BD218084B9A4203D2CB
:102CA00012058918C919F0BD0020002A01DC39007D
:102CB000F0BD01331905F5E7FD030000FE07000034
:102CC000002200B5203200F004F8080000BD00002A
:102CD00000220B150AD410B5944600F031F81414F4
:102CE000013400DA0021CB17144C204700200021CA
:102CF00070476244343A0CD40C2A07DA040091403D
:102D0000904052422032D440214310BDD843D94391
:102D100010BD203207D40C4694405242203211415B
:102D2000D040204310BD0800C917203203D45242BE
:102D30002032104110BD1800190010BDF32C0010F6
:102D40000A0DCC0F531E1B05C91A520503D3C943E4
:102D5000404200D30131520D03D0531CDB0A07D08F
:102D6000121B00206400611C89078912803A12033B
:102D7000014BD21A70470000FF0300005143434348
:102D8000C9188C46110C83B24B4310B4040C614338
:102D900092B280B2504362431C041B0C001910BC59
:102DA00059411304120CC01851416144704700008E
:102DB0004840414048400E4B5B6818470C4B1B682D
:102DC00018470C4A936F9B0802D2094BDB681847DF
:102DD000F0B5146E556E576F166FFFF7F6FF054A84
:102DE0001466556657671667F0BD014B9B68184718
:102DF000A80B0020000000D0491A002808D108467E
:102E000070470000C10FC90700D54042002817D005
:102E1000F44603B40B4B1B68984706BC81409E38B0
:102E20004042803107D20B0607D04900490AC0054D
:102E30001043084360470130F8E7490A8902F5E783
:102E40007047000068140020014B5B6A18470000BF
:102E5000A80B0020132310B512481C78FFF7DAFBEB
:102E60000100012C0AD003DD80220F4800F048F851
:102E70000E48FFF7C7FB0E4B186010BD0A4C5422DA
:102E8000200000F03DF80B4B6365A365E365236606
:102E90006366A366E36623676367A367E3672362EA
:102EA000E361E5E753460000A80B00204C33000027
:102EB00068140020B92E001007B5604601880A0A80
:102EC0000230DF2AFAD1C9B2820804D302884088CE
:102ED0000004104300E00068014A5050039007BD11
:102EE000A80B002001480421014B1847C004002012
:102EF00025260010014B1B6818470000C004002065
:102F0000014B5B6818470000C0040020F0B5C646BE
:102F100000B5437C07000D001600002B38D0002AB6
:102F20002EDD00216A1E90466A5C037C4C1C00204A
:102F30000A2A0CD0A64216D043461B5D21000D3B49
:102F40005A4253416A5CDBB24C1C0A2AF2D1002B74
:102F5000F0D1814217DC022110483B689847A64215
:102F600007D02000E8E7864203DD311A3B682818C5
:102F70009847AD19013D2B780D3B5A4253413B74A4
:102F800080BCB846F0BD091A3B6828189847E2E7AC
:102F90000368110028009847F2E7C04674580010F3
:102FA000F0B5CE46474680B583B06B46DE1CD023D5
:102FB00030701B061C68204B804601A918009946FA
:102FC00002F062FA071E20D01C4B1C68002C29D08E
:102FD0001B4D02E0E468002C0FD02368002BF9D0D1
:102FE0002B68002B01D0A342F4D120000122310034
:102FF000FFF78CFFE468002CEFD1002F12D1404680
:1030000003B0C0BCB946B046F0BD019B64B29C425F
:103010000CD0484602F048FA084B1C68002C01D03E
:103020000127D5E7484602F01FFAE8E7034B1C6882
:10303000002CCDD1E3E7C04644090020F00F00206A
:10304000F40F0020F0B5DE4645464E465746E0B543
:1030500083B0060002F070F9D0231B061C68304BC9
:10306000050001A918009B4602F00EFA80460028D0
:103070003DD02C4B1C689A46002C47D00A232A4F7F
:10308000994602E0E468002C17D02368002BF9D0A1
:103090003B68002B01D0A342F4D120002A0031006C
:1030A000FFF734FF6B464A4620001A7101A901223E
:1030B000FFF72CFFE468002CE7D14346002B25D115
:1030C00053461C68002C06D06368002B0BD0984731
:1030D000E468002CF8D1280003B0F0BCBB46B2462F
:1030E000A946A046F0BDE468002CEDD1F3E7019BB2
:1030F00064B29C420ED0584602F0D6F9094B1C68C7
:103100009A46002C02D001239846B7E7584602F0B1
:10311000ABF9D5E7034B1C689A46002CAED1DAE731
:1031200044090020F00F0020F40F00200A4A136821
:10313000002B05D10CE01A00DB680C32002B07D005
:103140009842F8D1002902D1C3681360C16070476A
:103150000029FCD01060FAE7F00F0020F0B500293C
:1031600015DD0E4B0D271A680D4B0E4CD3185D4222
:103170006B41451820215B001E5F0478A64207D0F2
:1031800093691942FCD101301460A842F5D1F0BD19
:1031900093691942FCD11760F2E7C04694140020ED
:1031A0000080FCBF8C14002030B50500002912DD22
:1031B00000201024094B013D1A6893691C4208D174
:1031C000013093691C42FCD113682B548142F4D125
:1031D00030BD0028FCD103204042F9E794140020C0
:1031E00070B51C000A4B15001860FEF70DFF002D8E
:1031F00003DB02212800FEF7BFFE002C03DB0221C7
:103200002000FEF7B9FE01210248FFF78FFF70BDD5
:1032100094140020D0040020F0B59823574645466A
:10322000DE464E46674AE0B5D75880253C006D0221
:1032300085B02C40883B2F420ED001222321624BC7
:1032400000205A54DA70614901F0F8F980222C000C
:103250005F4B92021A655F4BFA0617D480235B011D
:103260001F424BD18023DB011F4200D080E080232E
:103270001B021F4200D089E0BC4200D09DE005B097
:10328000F0BCBB46B246A946A046F0BD4D4A926D81
:103290009046002A2DD04E4A0024934601229146A2
:1032A000494A0126924642465146B8469A46170078
:1032B000039104E001347600E4B2202C17D03742A9
:1032C000F8D05B469E654B466508A3436D00ED183C
:1032D000039B6D019C466544280000F00BFB002811
:1032E0005FD10134B743E4B27600002FE5D1474601
:1032F00053461C0080235B011F42B3D01C430023B4
:10330000304A00211360314A33489360D36013611F
:1033100053619361D361136253629362D362136307
:1033200053639363D363136453649364D3641365E7
:1033300053659365D365136653669366D3661367C7
:1033400053679367D367F0229200FFF7D3FD234BB7
:10335000234A00211A600020012201F043F9802253
:103360001B4B12031A658023DB011F4200D17EE74D
:103370000122042100201C4301F0A2F81022144B6A
:103380001A6580231B021F4200D175E70122052127
:1033900000201C4301F094F880220D4B12011A65A5
:1033A0006AE74B46AA8AA97800200093002301F01F
:1033B0006DF9280000F0DAF993E721000948794017
:1033C000FEF70AFF00001150F80F00200000105017
:1033D000003011501000010038100020241400208B
:1033E000800110507858001010B501210520FEF71B
:1033F00021FC10BD10B500220021024800F0DEF9CA
:1034000010BDC046181000208022024B5202DA6420
:103410007047C04600201150F0B5C64600B5060002
:1034200000F07EF90C232E4D0520AB672D49FEF7E9
:1034300027FC402398462C4C402200212000FFF717
:1034400059FD43460127A38321210023274A6770A2
:10345000A260136063545F3161844146A1870239E1
:103460006354234A23496360E260A1620B60E26215
:10347000214A636220009360D360136153619361BA
:10348000D361136253629362D36213635363936392
:10349000D363136453649364D36413655365936572
:1034A000D365136653669366D36613675367936752
:1034B000D367F022002192004030FFF71BFD0F4B35
:1034C0000F4A30001A6080239B052F64EB64902321
:1034D0000C4AEA50FFF798FF80BCB846F0BDC046E2
:1034E0000000115019320010F80F00208400105015
:1034F00000011050800010500000105024140020D3
:103500008001105010D001000B785B0602D14B787F
:10351000052B00D070478A78014B1A60FAE7C04645
:1035200000001150F0B5CE464746072380B54879D4
:103530008E780A790340C8787F21800731401B02CA
:10354000F40913434F00820F944691462A4D3A19CD
:103550005201AA18967001266640567060460026F1
:103560009383D6709077CA00012C29D023488446D3
:10357000880162448446AC4460468260166000293B
:1035800029D01F4AC9009046414441603F223F3341
:1035900093434A46022A00D15B001A493F190A6840
:1035A0007F01D3180B60184BED195340EA604A466F
:1035B0009006184380236A681B060343136010E0DB
:1035C00012488446880162448446AC446046826264
:1035D000166000290AD1002364012C1963600C4B8A
:1035E000E3600120C0BCB946B046F0BD064AC90040
:1035F000904641444162C9E7F80F00208400105012
:1036000004001050241400200000105080001050BE
:10361000000110500022154B10B59A60DA601A6153
:103620005A619A61DA611A625A629A62DA621A63BC
:103630005A639A63DA631A645A649A64DA641A659C
:103640005A659A65DA651A665A669A66DA661A677C
:103650005A679A67DA67F032920000210448FFF750
:1036600049FC044B044A1A6010BDC04600001050CB
:1036700038100020241400208001105010B57F2045
:103680000C0020404000E409110000191A00034B0F
:103690004001C01800F092F8012010BDF80F002082
:1036A0007F23180010B50840CA090B4203D107490F
:1036B0007D3B9B1A8B66400080188022044B4001A2
:1036C0000021C018120100F057F810BD0020115061
:1036D000F80F00207F22130010B50B400A4200D1E2
:1036E00010BDC9095B005B1804485B01C0180023CA
:1036F00000220349C37000F03FF8F1E7F80F002003
:10370000FFF7FFFF7F21C209034B9200014010B574
:10371000D2580248FEF760FDE40400208C580010E7
:1037200080220D4B520410B51A600C4B0C491A60E4
:1037300010008B689843FBD10A4C9C22002120008A
:10374000FFF7D8FB8022002152010748FFF7D2FB88
:103750000923636710BDC04600E0004000F0004050
:1037600000C00040000011500000105000230374FE
:10377000438283828361704710B58368002901D03A
:103780001C682140002A11D08024E4001143224209
:103790000CD01A6822420BD1074A0A401A60FFE790
:1037A000FFE7FFE7FFE7FFE7FFE78368196010BD6A
:1037B0008078FFF7A7FFC046FFFBFFFFF0B5C646C6
:1037C000002300B5838201330374436804001F683B
:1037D000838B81611E1C934200D9161C8020B6B2D7
:1037E000921B93B2E278C000304315008446681EF5
:1037F000854160466D03054301204240E2706278D6
:103800006382002A50D0002B2CD080225201154315
:10381000344A126C920743D5A28B111C9A4200D9EC
:10382000191C8AB28021C90011439B1A9046E27884
:103830009BB21600701E864176030E4301214A405A
:10384000E27062786382002A3AD0002B02D1802392
:10385000DB011E43A023244A36043A40DB053543EE
:10386000134309E0A023DB011D431E4B1B6C802387
:103870001E4A9B053A40134362681360A2681368AE
:103880005B052BD41A4B2B401360FFE7FFE7FFE7E4
:10389000FFE7FFE7FFE7A3681D6080BCB846F0BD07
:1038A000A278D209B8D1E2E73200E068FFF728FB3E
:1038B000A3699B19A36180231B021D43638AA2E7AE
:1038C000E0684246A1694030FFF71AFBA369434410
:1038D000A36180231B021E43638AB6E7A078FFF72B
:1038E00011FFC04600001150FFFFFFDFFFFFFFAFD9
:1038F000FFFBFFFFF0B5C64600B5067C0400002EB6
:1039000000D1CDE083681A681D684378AD05AD0D20
:10391000002B00D06FE0838AEB189BB28382A18BCF
:1039200062688D4206D2002363821368300080BC37
:10393000B846F0BD1268520010D58D420ED1A26873
:1039400015686278AD01AD0D002A00D08CE0EB184F
:10395000A3828D4202D200236382E7E7638A002BB1
:10396000E4D062681E1C17688B4200D90E1CE178F7
:1039700080220D00681E8541B6B2D20032436D032D
:10398000154301229B1B514062789BB26382E17018
:10399000002A5AD0002B3BD0802252011543454AC1
:1039A000126C920702D4A278D20936D0A28B111CD5
:1039B0009A4257D88AB28021C90011439B1A904677
:1039C000E2789BB21600701E864176030E430121F9
:1039D0004A40E27062786382002A53D0002B02D101
:1039E0008023DB011E43A023334A36043A40DB0523
:1039F0003543134316E02A008069E168FFF780FA37
:103A0000A38AA269EB189BB25219A382A26186E72E
:103A1000A023DB011D43274B1B6C8023274A9B05FA
:103A20003A40134362681360A26813685B053ED492
:103A3000234B2B401360FFE7FFE7FFE7FFE7FFE7BC
:103A4000FFE7A36800261D6070E73200E068A16907
:103A5000FFF756FAA3699B19A36180231B021D433C
:103A6000638A97E7191CA5E7E1682A004031A0693D
:103A7000FFF746FAA38AA18BEB18A382A3695B190F
:103A8000A36166E7E0684246A1694030FFF738FA73
:103A9000A3694344A36180231B021E43638A9DE7FD
:103AA0007F238178074A08481940FEF795FBA078E4
:103AB000FFF728FE00001150FFFFFFDFFFFFFFAF01
:103AC000FFFBFFFFE4040020AC580010024B5878C5
:103AD000431E9841C0B27047700E0020024B187808
:103AE0004007C00F7047C046700E0020014B187889
:103AF0007047C04699140020F0B5C6462D4F05000A
:103B00003B7800B5002B03D0012080BCB846F0BD47
:103B1000532200212848FFF7EDF9284C2000FEF73A
:103B20005FF8274B1C60274C20001C3CFEF774F804
:103B3000200001F09FFA244B244E1C60244B984631
:103B4000002B2AD0300000E000BF4246214B002469
:103B500018603378002A25D01E4A90469C420FD325
:103B600001F02EF801343378E4B2A342F6D22800F3
:103B7000FFF752FC2800FFF737FC01233B70C3E737
:103B800043461A6863001B19DB009B5898470134B1
:103B90003378E4B29C42E1D9E9E742460024337825
:103BA000002AD9D101F00CF83378002BDFD043463E
:103BB0001B68FFDE99140020700E0020280E0020E4
:103BC000C40E002008050020C80E00209814002014
:103BD00000000000040D0020F0B5DE4657464E46BA
:103BE0004546E0B58FB001F05DF9002800D14FE106
:103BF000C74BC84E9A46C84B55460193C74B0BACB2
:103C00009B460096009B1F68FA69EFF3108172B61D
:103C10001368002BFCD0BFF35F8F3962380021009E
:103C200001F09AF9FA693B6ABFF35F8F00211160D6
:103C300083F31088002800D12AE16378082BE1D8AB
:103C40009B00EB589F466368002BDBD0A068984729
:103C5000D8E77F222179B04B0A405700C809DB1909
:103C60001B18180001263030C778B743C770C778D3
:103C70000336B743C770002A00D110E1A84ADB7CA5
:103C8000002A06D0A74A1278934200D295E19B1AE7
:103C9000DBB2002B00D0FBE0A34FA3686279207851
:103CA000B847AFE79C4B012299461B78012013438C
:103CB0004A46137033234946D25C4E468243CA5467
:103CC000CA5C04218A43F2540133F25C8243F25409
:103CD000F25C00208A43F25423789A4600F02CFECE
:103CE000602223791A40602A0DD0402A00D1F2E0E8
:103CF000DB06DB0E012B00D16AE1022B00D121E1B2
:103D0000002B00D1F6E020780021FFF7C9FC8021CC
:103D10002078FFF7C5FC75E7019B1B78DB0700D413
:103D200070E7824B002B00D16CE700E000BF69E731
:103D3000794A1378DB0700D464E77D4B002B00D170
:103D400060E710780007C00F00E000BF5AE7754F2A
:103D5000734A00213B78002A00D1B7E06F4A0E0079
:103D60009146B34206D80136F6B29E4200D949E7E1
:103D7000B342F8D94A46116872009219D2008A18E3
:103D80005269002AEFD02078904701363B78F6B28E
:103D90009E42E6D936E7624A237891460022904651
:103DA0004A46604F9A4646463B78002A00D185E055
:103DB0009E425ED3504600F00DFF01363B78F6B2CE
:103DC000B342F5D2019E532200213000FFF792F852
:103DD0001022FF215748FFF78DF830002022FF21E5
:103DE0001330FFF787F800F09DFD534B002B00D1F7
:103DF00008E700E000BF05E7494A23789146002222
:103E000090464A46474F9A463B78002A4DD0434A4F
:103E1000464691469E421DD3504600F0DBFE0136D9
:103E20003B78F6B2B342F5D23B4F53220021380023
:103E3000FFF760F81022FF21F81CFFF75BF838004D
:103E40002022FF211330FFF755F800F06BFD237996
:103E5000BB70D7E64B461A6873009B19DB00D3187A
:103E60005B685046984701363B78F6B2B342D1D2F0
:103E7000DAE75B461A6873009B19DB00D3185B68AE
:103E80005046984701363B78F6B2B34290D299E754
:103E90000FB0F0BCBB46B246A946A046F0BDA36831
:103EA0006279207800F05CFDACE6504600F092FEAE
:103EB0003B78002BB8D04B465B68FFDE504600F0E5
:103EC00089FE3B78002B00D17CE7F4E7002B00D182
:103ED00098E65369FFDE1948002800D113E700F087
:103EE0002BFD002150460CAA00E000BF002800D0A6
:103EF00088E608E7202A00D19FE0002A00D002E7E8
:103F00006379092B00D9FEE60D4A9B00D3589F46E2
:103F1000E0580010C80E0020700E0020040D002094
:103F20000000000098140020394E0010000000002E
:103F300000000000730E00200000000000000000E0
:103F4000045900107023217A0B4200D0DBE60F33B6
:103F50000B405B00CF09F018C019C07C8446B748FD
:103F6000002808D0B6480078844500D286E066462E
:103F7000301AC0B28446604600287BD1002A00D0A7
:103F800009E1B04A90466079022602000290B243ED
:103F9000012A00D103E1002800D0B4E64B44DB192C
:103FA0003033DB780AAA9B07DB0F023213805046BE
:103FB00002230CA900F060FC24E6A34A5800126812
:103FC000C318DB00D318002B00D161E71F6964E63A
:103FD000237A0F2B00D996E6984A4B44DB78002AC7
:103FE00005D0974A1278934263D39B1ADBB2002B19
:103FF00000D088E69548934F00F09EFC0021504683
:10400000FB680CAA9847002800D0FBE56022170047
:1040100023791F401A4200D075E663790A3B012BD1
:1040200000D970E600F088FC63790A2B00D1E3E048
:1040300050460CA900F00AFCE4E5237A0F2B00D9C6
:1040400061E67E4A4B44DB78002A06D07C4A12782F
:10405000934200D2C5E09B1ADBB2002B00D052E69F
:104060007A48784F00F068FC00215046FB680CAAA3
:1040700098473BE79046002A85D044E6664676009E
:10408000B046C4446646F600B4466F4800686044D3
:104090008046002A00D176E7002800D133E6C068C8
:1040A00000F04AFC434600215046DB680CAA9847C2
:1040B0001CE7654A59001768CB18DB00FF18002F72
:1040C00000D120E6F86897E7E388012B00D01AE6D4
:1040D0000822337893434A461370A9E702203178C7
:1040E0000AAB9A1C8B068908DB0F01400B435DE786
:1040F000A279059273789A4207D07378002B00D08A
:1041000023E1059B002B00D0A6E04B46059A5046C4
:104110000CA95A7000F09AFB74E573780AAA02326F
:104120001370504601230CA900F0A6FB6AE5E38852
:104130001A0AD8B20F2A00D9E5E545499300CB58B1
:104140009F460CA800F0FEFB5046A179FFF752F9FC
:10415000022233781343337054E5E388012B00D0F7
:10416000D1E5082233781343B5E7022A00D17CE178
:10417000384B002B00D1C6E500E000BF0200002A4A
:1041800000D1C0E5D37891781B020B4350460CA9AF
:1041900000F072FBAAE62B4B2C48984680E7E28899
:1041A000002A07D14B44DF193037FB78012838D07B
:1041B0009B072AD54346002B00D123E5D86800F0A1
:1041C000BBFB43460CAADB68002150469847002001
:1041D00000F0B2FB34234A46D35CDB0700D511E57F
:1041E00026E7194A59001768CB18DB00FF18002F83
:1041F00000D188E5F86835E70AAB9A1C50460123E0
:104200000CA9177000F038FBFCE45046FFF748FAA1
:104210000222FB7813430122FB70FB781343FB70EF
:10422000C8E79B07C6D55046FFF754FAFB78029AB9
:10423000B343FB70FB789343FB70BBE700000000C7
:10424000981400206C590010040D0020754C0010CB
:104250002C59001000000000581EC0B2FCF7DEFC14
:10426000002800D14FE54378022B00D04BE5012117
:10427000C3799A115B110A400B4052011B01134391
:104280004A4612782F318A4313434A461370092352
:104290009846C37882781B021343C3180693804B59
:1042A000804402937F4B07937F4B08937F4B099386
:1042B0002B0045469846069BAB4200D8E7E001221A
:1042C0006B7804920B2B04D1EB7804932B78ED18C8
:1042D0006B78042B37D1069B00265B1B9BB20393A4
:1042E000029B1A78079B002B0FD183E0039F2900C4
:1042F0003A0050469847082801D9874210D2029BBD
:1043000001361A78F6B2B2421DD3089BB242EDD9FB
:10431000099B1A6873009B19DB00D3189B68E5E7BB
:10432000049B0700002B57D0AB78049A9A18D2B29E
:1043300004E00133DBB2CE7093424DD04946C91838
:10434000C878FF28F5D04546DDE45046FFF762F90E
:10435000B378534F534A0293160000213B78002A4A
:1043600031D02A000D009046504E9D421DD350463C
:1043700000F030FC01353B78EDB2AB42F5D245465A
:10438000532200214846FEF7B5FD4B461022D81CAB
:10439000FF21FEF7AFFD48462022FF211330FEF734
:1043A000A9FD4B46029A9A70ABE66B0032685B1926
:1043B000DB00D3185B685046984701353B78EDB277
:1043C0009D42D2D9DBE7504600F004FC3B78002B3D
:1043D000D6D033005B68FFDE330029003A00344852
:1043E00000F0A4FD029BED191B78B34200D362E7F5
:1043F000454688E429005046039A00F0F5FB010089
:104400000700082802D9039A824232D2029B45460D
:104410001B78002B00D176E400239B68FFDE254B40
:10442000002B00D16FE400E000BF0200AAE6224B9F
:10443000002B00D167E400E000BF021E00D162E45F
:10444000504613780CA900F017FA4FE52189FCF7C4
:10445000F3FB021EF4D156E4FCF7C4FB1223020066
:104460000CA9504600F008FA40E5FCF7D7FB020023
:1044700085E6049B002B00D056E70E000A000C488E
:104480002900079B00F052FDB446654413E70B4B2F
:104490004546002B00D138E600E000BF35E6C046B7
:1044A0009814002000000000E94B0010040D0020CB
:1044B000830E00200000000000000000000000004B
:1044C00030B587B06B4605000C00981C0A2200210D
:1044D000FEF710FD6B461D705C70042C4FD009D8A0
:1044E000022C34D0032C19D13C4A13785B0758D4E2
:1044F00007B030BD052C11D1384A1378DB07F7D54A
:10450000042113788B431370354B1C68E269EFF379
:10451000108172B61368002B09D1FBE7304B1C6881
:10452000E269EFF3108172B61368002BFCD0BFF381
:104530005F8F21626946200000F060FDE269236A16
:10454000BFF35F8F0021116083F31088D0E7012152
:10455000224B1A788A431A701A780331A2431A70D0
:1045600000225A701A788A431A701D4B1C68E2693F
:10457000EFF3108172B61368002BD8D1FBE7174A0E
:104580001378DB07B4D5042113780B431370144B55
:104590001C68E269EFF3108172B61368002BC6D174
:1045A000FBE704210E20137868448B43137000212D
:1045B0000A22FEF79FFC6B466A461D730523537360
:1045C000074B1C68E269EFF3108172B61368002B89
:1045D000FCD0BFF35F8F216203A9ACE7700E00200F
:1045E000C80E002070B584B06B4606000C000A228D
:1045F0000021981DFEF77EFC012301AD6B700E4B70
:104600002C711C682E70E269EFF3108372B611688A
:104610000029FCD0BFF35F8F23622900200000F047
:10462000EDFCE269236ABFF35F8F0021116083F321
:10463000108804B070BDC046C80E0020002330B5FD
:1046400085B001AD6B8028700633082202A86B701C
:10465000FEF756FC0C4B1C68E269EFF3108372B650
:1046600011680029FCD0BFF35F8F2362290020006E
:1046700000F0C4FCE269236ABFF35F8F0021116080
:1046800083F3108805B030BDC80E0020F0B5C646D3
:1046900000B584B01D006B4680460F001600002157
:1046A0000622981DFEF726FC434601AC2370072323
:1046B00063700F4B65711D682771A660EA69EFF39F
:1046C000108372B611680029FCD0BFF35F8F2B6294
:1046D0002100280000F092FCEA692B6ABFF35F8F8B
:1046E0000021116083F3108804B080BCB846F0BD8F
:1046F000C80E0020F8B54E46DE4657464546E0B5A2
:104700001F000A9B83460C00161E994637D0702363
:1047100098461C4B00259A4617E05346200099788E
:1047200000F0C4FB00281CD021005846FEF7FAFE1A
:10473000002816D0A378DA09012A19D04A46137046
:1047400023780135E418B54219DA6378052B08D1CE
:10475000E3789B079B0FBB4203D14246A3781A42E2
:10476000DBD00020F0BCBB46B246A946A046F8BD4F
:104770000B9A013513702378E418B542E5DB01206C
:10478000F0E7C046700E00207F2270B5154B0A403E
:1047900052009C18C90964183034E378DB07DD0F38
:1047A000002B18D1E3785B0701D5280070BD0121EB
:1047B0000D4E4942306800F06FFEE378DB07DD0FF5
:1047C000002B0AD1E3785B0708D40422E3780125A3
:1047D0001343E37002E00025E7E70025306800F0AE
:1047E00043FEE2E7700E0020C40E002070B57F2467
:1047F0000E4D0C4064002C19CE09A4193034E57814
:10480000ED0701D5002070BD0126E5783543E57040
:10481000FEF734FF0028F6D10122E3789343E370DA
:10482000E37803329343E370ECE7C046700E002058
:104830007F22054B0A405200C9099B185B18303390
:10484000D878C007C00F7047700E002070B5094CB3
:104850000600082220000D00FEF752FB00238021F5
:10486000E360A3602B783000994300220023FFF718
:10487000BDFF70BD080D0020F8B5CE4647469046F6
:10488000264E80B58146082230000D001F00FEF73D
:1048900037FB4346B3600023F381EC79AB79240204
:1048A0001C43231CBC4200D93B1C9FB2B381002C8B
:1048B0000ED0002F18D04346002B2CD03B1C402F8D
:1048C0001BD89FB233787F2B1CD80021144A0FE0ED
:1048D00080212B780022994348460023FFF786FF6A
:1048E000C0BCB946B046F8BD7F2300223178994359
:1048F0003B004846FFF77AFFF2E740239FB2337848
:104900007F2BE2D9064C3A0041462000FEF7F8FA28
:1049100080212200ECE70020E2E7C046080D0020DD
:10492000300E002010B5142200210248FEF7E2FAF2
:1049300010BDC046080D0020014B18617047C046ED
:10494000080D002010B5054C010008222000FEF7DC
:10495000D7FA0023A360E36010BDC046080D002015
:1049600070B5394C1D0023780600DA09C9098A425E
:1049700013D00020002D00D070BD344B002B03D08D
:1049800021003000FEF7C0FD2369002B03D0220078
:104990000221300098470120EEE7A0687F2B05D860
:1049A000002834D02A002A49FEF7AAFAE289A16831
:1049B0005219E38892B24919E281A160934214D05E
:1049C0003F2D12D9A389981A051C80B240282AD8F5
:1049D0002078ADB27F2828D800219A4232D01C4AD4
:1049E0002B003000FFF702FFC6E72369002B05D03C
:1049F000220001213000984700280AD08021237826
:104A00000022994330000023FFF7F0FEB4E70020B6
:104A1000B2E700213000FEF743FE30008021FEF7B0
:104A20003FFE0120A8E74025D2E79A4207D0084C74
:104A30002A002000FEF764FA80212200D0E78021BE
:104A40000022CDE70022CBE7080D00200935001039
:104A5000300E00208C2242430B4B10B59B185C7823
:104A6000FFF734F8002801D1002010BDFFF736F819
:104A70000028F9D1002CF7D02100FFF7D9FE01233F
:104A80005840C0B2F1E7C0469C0D0020F8B58C2418
:104A90004746CE464443214E80B51F0033190500DA
:104AA0008846002059789146FFF76EFE00281DD0F9
:104AB000434608343419002B1CD03B1C3F2F23D80D
:104AC000DFB28C2342466B43F3181A7249463A0010
:104AD000601CFEF715FA0137FFB28C236B43F61802
:104AE00022003B0000207178FFF780FEC0BCB94671
:104AF000B046F8BD3B1C402F08D8DFB23A0049460B
:104B00002000FEF7FDF9E8E73F23D9E74023DFB2B5
:104B10003A0049462000FEF7F3F9DEE79C0D00203D
:104B2000F0B557464E464546DE468C249146002257
:104B3000E0B583B098460CAB1B7844435BB29B4610
:104B40000DAB1B781D4E5BB200930EAB0F009A5657
:104B5000311905008A46002049780192FFF714FEBA
:104B6000002815D008343219002F18D14B46137085
:104B7000434653705B469370009BD370019B137147
:104B800005238C216943761800207178FFF72EFEEB
:104B900003B0F0BCBB46B246A946A046F0BD5146A4
:104BA0000F7249465170414691705946009BD17031
:104BB0001371019B53710623E3E7C0469C0D00204F
:104BC00010B58C2200210248FEF794F910BDC046B2
:104BD0009C0D002010B58C2200210248FEF78AF9B6
:104BE00010BDC0469C0D0020F0B54B7906000D00AD
:104BF00083B0032B11D10879C400241A1234A4B253
:104C000094420AD81A4F7B78002B06D18823297842
:104C10006918F9504B78212B03D00024200003B0F1
:104C2000F0BD0B780200C9187B1C0193BB1C0093DC
:104C300030000323FFF75EFD0028EED0AB79012B97
:104C400001D1EB79FB7001233B71AB7802223B7001
:104C50008823F958B81D0731FEF752F9B9780029B1
:104C6000DCD03A00402330004832FFF7BFFDD5E7E3
:104C70009C0D00201F23F0B514001278050083B0AE
:104C80001340012B1BD1634E20793378984216D103
:104C9000602318001040134208D020280FD16378F9
:104CA0000B2B0CD85C4A9B00D3589F46002917D188
:104CB000E378A17862781B020B43062A02D0002019
:104CC00003B0F0BD1B0A212B76D0222BF7D1002098
:104CD000FBF796FF21000200F3882800FFF7CCFDC8
:104CE0000120EDE7002917D00229F9D1A1784B4B1B
:104CF0003171002BF4D0002000E000BF0120DFE77D
:104D00000029EDD1E178464B7171002B04D00020D1
:104D100000E000BF0028D2D021002800FFF796FD58
:104D20000120CDE7002952D1E379A2791B02134378
:104D3000402BC4D8210028003A4AFFF79DFD0120EE
:104D4000BEE70029CCD1012321002800364AFFF715
:104D500093FD0120B4E70029C2D1012321002800DE
:104D6000324AFFF789FD0120AAE70029B8D1E3798B
:104D7000A0791B020343E278A178181C402B00D9CC
:104D8000402080B2002941D0012B3FD933000127B8
:104D90000138317280B2093300900020FBF7EAFE3F
:104DA0003B189BB2002B00D189E721002800204A44
:104DB000FFF762FD012083E76733F258002A00D134
:104DC0007DE7210028001378FFF756FD78E70229D8
:104DD00086D1E079A37900021843E278A178041C17
:104DE000402800D940240F4BA4B2002908D0012844
:104DF00006D94820305C884202D1013C0D4BA4B258
:104E000000200094FBF7B8FE012059E70027084B6B
:104E1000C2E7C0469C0D002084590010000000002D
:104E200000000000E40D0020A00D0020A10D0020D6
:104E3000A40D0020E50D002070B5144C0500A278EB
:104E4000667882B08A420ED000208E4201D002B035
:104E500070BD0F4A002A04D000200E49DAB200E0EB
:104E600000BF0120F3E79642F3D026009BB24836FC
:104E700000930022330000210020FBF77DFE402339
:104E800032002800A178FFF7B1FCE0E79C0D00207C
:104E900000000000A40D002010B50020FEF72CFE3D
:104EA00010BDC04610B5FEF721FE10BD072210B59B
:104EB00044790379224012021A43C3789B079B0F5F
:104EC000022B05D0032B15D00020012B08D010BDDC
:104ED00002291ED00020402393424041C0B2F6E791
:104EE00002394B4259410E4B9C466144914240412C
:104EF000C0B2ECE702394B1E99410A4B49421940B6
:104F00008023DB009C460020614491424041C0B2B6
:104F1000DDE7054BD01843425841C0B2D7E7C04641
:104F2000FF03000040FCFFFF00FEFFFFF0B5002A7A
:104F300011D000247F274D78052D06D13D008E78B5
:104F400035406D00F6094519AB550D782C19A4B202
:104F50004919A242EFD8F0BD70B5040080690E0077
:104F6000002803D00121494200F096FAE089228A04
:104F700081B2851A93B2ADB2904202D26289AD1A63
:104F8000ADB2A288AA422BD2914222D260891018D7
:104F9000091A89B221829A4203D89B1A9BB29A427B
:104FA000FBD9E288216853433000C918FDF7A8FFF8
:104FB000228A0125531C9BB29A4215D962899B18FB
:104FC0009BB2A0692382002801D000F04DFA28008E
:104FD00070BD891AA08989B2884209D3150021823F
:104FE000002DDCD1238A9BB2A2899A42E9D2E5E75F
:104FF00060891500091A89B22182F1E770B50400B1
:1050000040690E00002803D00121494200F044FA13
:10501000E289218A95B2531A9BB2914202D96289E0
:105020009B1A9BB2A2889A4220D02B00954203D3B0
:105030009B1A9BB29A42FBD9E28820685343310005
:10504000C018FDF75DFF6B1C9BB29D420AD96289B7
:105050009B189BB26069E381002801D000F004FA3C
:10506000012070BDA2899A42F4D2F0E7207A00288C
:10507000DBD1F6E710B504004069002803D0012118
:10508000494200F009FAA069002803D001214942F1
:1050900000F002FA0023E3812382A38860695B00A9
:1050A0009BB25A1E5B42A2816381002801D000F0AE
:1050B000DBF9A069002801D000F0D6F9012010BD6D
:1050C00010B51920FCF782FFD0238022E1211B06B6
:1050D00092045A620448054B0022186049020123D9
:1050E000FEF77EF810BDC04600400340901400203B
:1050F000F0B5DE4657464E4645468846E0B583B095
:1051000006000524FBF77AFE43461F791C57314BF6
:105110008246F3185A4253419B009C462E4A130084
:10512000934662469B5801229946BA402023013A91
:10513000DB1B002C36DB9C4246DCA2404B46134274
:1051400042D10192002F1CD04246434652781B7830
:1051500012021A4343469B7880251B0413434246A0
:10516000D078002200061843AD015300C15AA9426D
:1051700000D20919A31812339B0001329951BA4287
:10518000F3D34D46019B62461D435B4650469D50FE
:10519000FBF740FE200003B0F0BCBB46B246A94678
:1051A000A046F0BD002B0FDB1100484699401C00C3
:1051B0000191014206D1C5E7150049469D401C00FA
:1051C000294204D0013BF7D20448FDF705F80195C8
:1051D000B8E7C0460000D0AF8C0F0020CC590010BB
:1051E000F0B54E464546DE4657468A464900E0B58C
:1051F0000E0080465644F60046448946310009AC0C
:10520000DC31257808686C426541844614481E24C8
:1052100083466D42A5435D44052B0CD9A0201F2772
:105220004005D836540104430532053B0C603A4032
:105230003560052BF6D84F465744FF003800520121
:1052400040449B0613430200DC3213606346D830AF
:1052500005601360F0BCBB46B246A946A046F0BD4F
:105260009FE00000F0B501258D400468AC43046068
:10527000002B30D04D006C18E400041926001F6884
:10528000C83637605F68DC3477609F68DB68B7607A
:1052900023606B18DB001D008024D03545196401A4
:1052A0002C4380252D0625602560144C0D1D8C4057
:1052B000846001242700AF403D0008318C401F214D
:1052C00006680A403543056005682C430460C01831
:1052D000D8300260F0BD4D006C18E40004192600BF
:1052E0008027C8367F023760F8277F027760C027A3
:1052F000DC343F03B7602360CBE7C0460101010106
:1053000010B5010000230022002000F043F810BD7A
:1053100070B5074C074D641BA41005D0013CA300D9
:10532000EB589847002CF9D100F09AF870BDC046B0
:10533000640900206409002010B583070AD0030027
:10534000032102E001330B4205D01A78002AF9D17B
:10535000181A10BD030019680C4A0D4C8A188A43AC
:1053600022420FD15968094A04338A188A432242DB
:1053700008D15968054A04338A188A432242F1D079
:1053800000E001331A78002AFBD1E1E7FFFEFEFEC0
:1053900080808080F0B5D6464F4646469846264BDC
:1053A000C0B50600186891469A460F0000F054F800
:1053B000A422224B52001B689D58002D32D0534628
:1053C0006C6818681F2C32DC002E0CD1631C023470
:1053D000A4006B60675100F041F80020E0BCBA46C1
:1053E000B146A846F0BD49468822A300EB18995063
:1053F000C42149008C46AC446146873AA240096802
:1054000091461143624611608421424649005A5038
:10541000022EDBD129004A468D31FF310B68134340
:105420000B60D3E71D004D35FF359D50C7E700F0F9
:1054300015F801204042D1E738090020E05900105A
:10544000034B10B5002B02D00248FFF759FF10BDE7
:1054500000000000115300107047C0467047C0465E
:10546000F8B5C0460000000001B40248844601BC03
:10547000604700BFE901002001B40248844601BC36
:10548000604700BF1102002001B40248844601BCFD
:10549000604700BF0901002001B40248844601BCF6
:1054A000604700BF4901002001B40248844601BCA6
:0854B000604700BFC1000020AD
:1054B800C054001004FF000021622311001442A40C
:1054C800D054001017FF0000024046A020E0C1A001
:1054D800024026A0A800020027A0E2A041608E009A
:1054E800CF001300D30029A0510029A014005400B4
:1054F800C1A02080E1A00000141A00000B0C0D0EC2
:105508000F10111213000000000102030405060722
:1055180008090A001607092C0D0E0F051E000000C9
:105528004C61696E00000000444346697368204975
:105538004F00000031323334353600004275747440
:105548006F6E203120520000427574746F6E2031E6
:1055580020470000427574746F6E203120420000AD
:10556800427574746F6E2032205200004275747454
:105578006F6E203220470000427574746F6E2032BF
:1055880020420000427574746F6E20332052000070
:10559800427574746F6E203320470000427574742E
:1055A8006F6E203320420000427574746F6E203491
:1055B80020520000427574746F6E2034204700003A
:1055C800427574746F6E2034204200004275747402
:1055D8006F6E203520520000427574746F6E20354E
:1055E80020470000427574746F6E20352042000019
:1055F800427574746F6E20362052000042757474C0
:105608006F6E203620470000427574746F6E203626
:1056180020420000427574746F6E203720520000DB
:10562800427574746F6E2037204700004275747499
:105638006F6E203720420000090400000902220092
:10564800010100A032090400000103000000092143
:1056580011010001229C00070581034000010000A0
:1056680009022200010100A0320904000001030020
:10567800000009211101000122540007058103409F
:105688000001000005010900A101850295217508A6
:10569800150026FF00050A89049915190129159195
:1056A80002950175088103C005010907A101850359
:1056B80075019508050719E029E7150025018102FC
:1056C800750195F8150025010507190029F78102CC
:1056D800C005010902A10185040901A100050919F4
:1056E80001290515002501950575018102950175AA
:1056F8000381010501093009311581257F9502755E
:1057080008810609381581257F95017508810605E8
:105718000C0A38021581257F950175088106C0C0DD
:1057280005010904A101850105091901290B1500C5
:105738002501950B75018102950175058103050108
:10574800150026FF0009300931950275088102C04D
:1057580005010900A101850295217508150026FF9C
:1057680000050A89049915190129159102950175F1
:10577800088103C01201000200000040AE0004408E
:1057880000010102040100001201000200000040B3
:10579800AE00044000010102030100004E6F2073B7
:1057A80070696E6C6F636B732061726520617661DE
:1057B800696C61626C65000048617264776172654A
:1057C80020616C61726D20256420616C7265616472
:1057D8007920636C61696D65640000000A2A2A2AD1
:1057E8002050414E4943202A2A2A0A000A00000074
:1057F80048617264206173736572740052656C65E8
:1058080061736500626F6F74325F7732357130385B
:1058180030000000312E342E300000007069636FB4
:10582800000000005069636F5F47616D655F436FFB
:105838006E74726F6C6C6572000000004A756C20A3
:10584800313020323032320006005250D3F07542E7
:105858000458001006005250E182887F0C5800104E
:1058680006005250BBFF3CB6245800100D0A000039
:10587800556E68616E646C656420495251203078B9
:1058880025780A00657020256420257320776173C8
:1058980020616C726561647920617661696C61620E
:1058A8006C65000043616E277420636F6E74696EC7
:1058B80075652078666572206F6E20696E61637405
:1058C8006976652065702025642025730000000036
:1058D8006F757400696E0000043C0010F83D0010FC
:1058E800963D00104E3D0010303D0010183D001050
:1058F800A43C0010523C0010463C0010DC40001054
:10590800C8400010063D00105A410010063D001026
:10591800424100102E410010063D00101A410010AF
:10592800F0400010063D0010584400106A41001075
:105938004C440010063D0010063D00102E44001097
:105948006A410010063D0010063D0010063D00109B
:10595800063D0010063D0010063D0010063D0010F3
:105968001E440010C14B0010D54B0010E94B00102D
:10597800754C0010394E001000000000BE4C00109D
:105988006A4D0010564D0010424D0010BE4C0010DC
:10599800BE4C0010BE4C0010BE4C0010BE4C001097
:1059A800244D0010004D0010E44C00104C454400FC
:1059B8000900525000000002B4590010080052506B
:1059C800120000004E6F2070726F6772616D207355
:0C59D800706163650000000010050020F5
:1059E400505800105C5800109002001068580010C5
:1059F4009C020010A8020010B4020010C459001048
:045A0400B85900107D
:105A0800D02330B500251B0600245D5706E0036847
:105A1800BFF35F8F1C6081F3108820BF0268EFF32B
:105A2800108172B61368002BFCD0BFF35F8F037927
:105A38007F2BECD905710368BFF35F8F00221A60D2
:105A480081F3108830BDC04603000068EFF3108C66
:105A580072B60268002AFCD0BFF35F8F04229A5600
:105A6800002A04DB002900D00A60002004E0D022CC
:105A78000120120612681A711B68BFF35F8F00229B
:105A88001A608CF310887047F0B5C64600B582B02E
:105A98000C00070000F070F8FA2200230090019132
:105AA80020009200002100F05FF8009A019B14008A
:105AB8001D0024184D41AB422FD82BD0D0231B06F4
:105AC8001B68002698460BE03B68BFF35F8F1E609B
